{
  "contractName": "DiANFT",
  "abi": [
    {
      "inputs": [
        {
          "internalType": "string",
          "name": "_name",
          "type": "string"
        },
        {
          "internalType": "string",
          "name": "_symbol",
          "type": "string"
        },
        {
          "internalType": "string",
          "name": "_initBaseURI",
          "type": "string"
        },
        {
          "internalType": "address",
          "name": "_trustedForwarder",
          "type": "address"
        }
      ],
      "stateMutability": "nonpayable",
      "type": "constructor"
    },
    {
      "anonymous": false,
      "inputs": [
        {
          "indexed": true,
          "internalType": "address",
          "name": "owner",
          "type": "address"
        },
        {
          "indexed": true,
          "internalType": "address",
          "name": "approved",
          "type": "address"
        },
        {
          "indexed": true,
          "internalType": "uint256",
          "name": "tokenId",
          "type": "uint256"
        }
      ],
      "name": "Approval",
      "type": "event"
    },
    {
      "anonymous": false,
      "inputs": [
        {
          "indexed": true,
          "internalType": "address",
          "name": "owner",
          "type": "address"
        },
        {
          "indexed": true,
          "internalType": "address",
          "name": "operator",
          "type": "address"
        },
        {
          "indexed": false,
          "internalType": "bool",
          "name": "approved",
          "type": "bool"
        }
      ],
      "name": "ApprovalForAll",
      "type": "event"
    },
    {
      "anonymous": false,
      "inputs": [
        {
          "indexed": true,
          "internalType": "address",
          "name": "previousOwner",
          "type": "address"
        },
        {
          "indexed": true,
          "internalType": "address",
          "name": "newOwner",
          "type": "address"
        }
      ],
      "name": "OwnershipTransferred",
      "type": "event"
    },
    {
      "anonymous": false,
      "inputs": [
        {
          "indexed": true,
          "internalType": "address",
          "name": "from",
          "type": "address"
        },
        {
          "indexed": true,
          "internalType": "address",
          "name": "to",
          "type": "address"
        },
        {
          "indexed": true,
          "internalType": "uint256",
          "name": "tokenId",
          "type": "uint256"
        }
      ],
      "name": "Transfer",
      "type": "event"
    },
    {
      "inputs": [
        {
          "internalType": "address",
          "name": "to",
          "type": "address"
        },
        {
          "internalType": "uint256",
          "name": "tokenId",
          "type": "uint256"
        }
      ],
      "name": "approve",
      "outputs": [],
      "stateMutability": "nonpayable",
      "type": "function"
    },
    {
      "inputs": [
        {
          "internalType": "address",
          "name": "owner",
          "type": "address"
        }
      ],
      "name": "balanceOf",
      "outputs": [
        {
          "internalType": "uint256",
          "name": "",
          "type": "uint256"
        }
      ],
      "stateMutability": "view",
      "type": "function",
      "constant": true
    },
    {
      "inputs": [],
      "name": "baseExtension",
      "outputs": [
        {
          "internalType": "string",
          "name": "",
          "type": "string"
        }
      ],
      "stateMutability": "view",
      "type": "function",
      "constant": true
    },
    {
      "inputs": [],
      "name": "baseURI",
      "outputs": [
        {
          "internalType": "string",
          "name": "",
          "type": "string"
        }
      ],
      "stateMutability": "view",
      "type": "function",
      "constant": true
    },
    {
      "inputs": [],
      "name": "cost",
      "outputs": [
        {
          "internalType": "uint256",
          "name": "",
          "type": "uint256"
        }
      ],
      "stateMutability": "view",
      "type": "function",
      "constant": true
    },
    {
      "inputs": [
        {
          "internalType": "uint256",
          "name": "tokenId",
          "type": "uint256"
        }
      ],
      "name": "getApproved",
      "outputs": [
        {
          "internalType": "address",
          "name": "",
          "type": "address"
        }
      ],
      "stateMutability": "view",
      "type": "function",
      "constant": true
    },
    {
      "inputs": [
        {
          "internalType": "address",
          "name": "owner",
          "type": "address"
        },
        {
          "internalType": "address",
          "name": "operator",
          "type": "address"
        }
      ],
      "name": "isApprovedForAll",
      "outputs": [
        {
          "internalType": "bool",
          "name": "",
          "type": "bool"
        }
      ],
      "stateMutability": "view",
      "type": "function",
      "constant": true
    },
    {
      "inputs": [
        {
          "internalType": "address",
          "name": "forwarder",
          "type": "address"
        }
      ],
      "name": "isTrustedForwarder",
      "outputs": [
        {
          "internalType": "bool",
          "name": "",
          "type": "bool"
        }
      ],
      "stateMutability": "view",
      "type": "function",
      "constant": true
    },
    {
      "inputs": [],
      "name": "maxMintAmount",
      "outputs": [
        {
          "internalType": "uint256",
          "name": "",
          "type": "uint256"
        }
      ],
      "stateMutability": "view",
      "type": "function",
      "constant": true
    },
    {
      "inputs": [],
      "name": "maxSupply",
      "outputs": [
        {
          "internalType": "uint256",
          "name": "",
          "type": "uint256"
        }
      ],
      "stateMutability": "view",
      "type": "function",
      "constant": true
    },
    {
      "inputs": [],
      "name": "name",
      "outputs": [
        {
          "internalType": "string",
          "name": "",
          "type": "string"
        }
      ],
      "stateMutability": "view",
      "type": "function",
      "constant": true
    },
    {
      "inputs": [],
      "name": "owner",
      "outputs": [
        {
          "internalType": "address",
          "name": "",
          "type": "address"
        }
      ],
      "stateMutability": "view",
      "type": "function",
      "constant": true
    },
    {
      "inputs": [
        {
          "internalType": "uint256",
          "name": "tokenId",
          "type": "uint256"
        }
      ],
      "name": "ownerOf",
      "outputs": [
        {
          "internalType": "address",
          "name": "",
          "type": "address"
        }
      ],
      "stateMutability": "view",
      "type": "function",
      "constant": true
    },
    {
      "inputs": [],
      "name": "paused",
      "outputs": [
        {
          "internalType": "bool",
          "name": "",
          "type": "bool"
        }
      ],
      "stateMutability": "view",
      "type": "function",
      "constant": true
    },
    {
      "inputs": [],
      "name": "renounceOwnership",
      "outputs": [],
      "stateMutability": "nonpayable",
      "type": "function"
    },
    {
      "inputs": [
        {
          "internalType": "address",
          "name": "from",
          "type": "address"
        },
        {
          "internalType": "address",
          "name": "to",
          "type": "address"
        },
        {
          "internalType": "uint256",
          "name": "tokenId",
          "type": "uint256"
        }
      ],
      "name": "safeTransferFrom",
      "outputs": [],
      "stateMutability": "nonpayable",
      "type": "function"
    },
    {
      "inputs": [
        {
          "internalType": "address",
          "name": "from",
          "type": "address"
        },
        {
          "internalType": "address",
          "name": "to",
          "type": "address"
        },
        {
          "internalType": "uint256",
          "name": "tokenId",
          "type": "uint256"
        },
        {
          "internalType": "bytes",
          "name": "data",
          "type": "bytes"
        }
      ],
      "name": "safeTransferFrom",
      "outputs": [],
      "stateMutability": "nonpayable",
      "type": "function"
    },
    {
      "inputs": [
        {
          "internalType": "address",
          "name": "operator",
          "type": "address"
        },
        {
          "internalType": "bool",
          "name": "approved",
          "type": "bool"
        }
      ],
      "name": "setApprovalForAll",
      "outputs": [],
      "stateMutability": "nonpayable",
      "type": "function"
    },
    {
      "inputs": [
        {
          "internalType": "bytes4",
          "name": "interfaceId",
          "type": "bytes4"
        }
      ],
      "name": "supportsInterface",
      "outputs": [
        {
          "internalType": "bool",
          "name": "",
          "type": "bool"
        }
      ],
      "stateMutability": "view",
      "type": "function",
      "constant": true
    },
    {
      "inputs": [],
      "name": "symbol",
      "outputs": [
        {
          "internalType": "string",
          "name": "",
          "type": "string"
        }
      ],
      "stateMutability": "view",
      "type": "function",
      "constant": true
    },
    {
      "inputs": [
        {
          "internalType": "uint256",
          "name": "index",
          "type": "uint256"
        }
      ],
      "name": "tokenByIndex",
      "outputs": [
        {
          "internalType": "uint256",
          "name": "",
          "type": "uint256"
        }
      ],
      "stateMutability": "view",
      "type": "function",
      "constant": true
    },
    {
      "inputs": [
        {
          "internalType": "address",
          "name": "owner",
          "type": "address"
        },
        {
          "internalType": "uint256",
          "name": "index",
          "type": "uint256"
        }
      ],
      "name": "tokenOfOwnerByIndex",
      "outputs": [
        {
          "internalType": "uint256",
          "name": "",
          "type": "uint256"
        }
      ],
      "stateMutability": "view",
      "type": "function",
      "constant": true
    },
    {
      "inputs": [],
      "name": "totalSupply",
      "outputs": [
        {
          "internalType": "uint256",
          "name": "",
          "type": "uint256"
        }
      ],
      "stateMutability": "view",
      "type": "function",
      "constant": true
    },
    {
      "inputs": [
        {
          "internalType": "address",
          "name": "from",
          "type": "address"
        },
        {
          "internalType": "address",
          "name": "to",
          "type": "address"
        },
        {
          "internalType": "uint256",
          "name": "tokenId",
          "type": "uint256"
        }
      ],
      "name": "transferFrom",
      "outputs": [],
      "stateMutability": "nonpayable",
      "type": "function"
    },
    {
      "inputs": [
        {
          "internalType": "address",
          "name": "newOwner",
          "type": "address"
        }
      ],
      "name": "transferOwnership",
      "outputs": [],
      "stateMutability": "nonpayable",
      "type": "function"
    },
    {
      "inputs": [],
      "name": "trustedForwarder",
      "outputs": [
        {
          "internalType": "address",
          "name": "",
          "type": "address"
        }
      ],
      "stateMutability": "view",
      "type": "function",
      "constant": true
    },
    {
      "inputs": [
        {
          "internalType": "address",
          "name": "",
          "type": "address"
        }
      ],
      "name": "whitelisted",
      "outputs": [
        {
          "internalType": "bool",
          "name": "",
          "type": "bool"
        }
      ],
      "stateMutability": "view",
      "type": "function",
      "constant": true
    },
    {
      "inputs": [],
      "name": "versionRecipient",
      "outputs": [
        {
          "internalType": "string",
          "name": "",
          "type": "string"
        }
      ],
      "stateMutability": "pure",
      "type": "function",
      "constant": true
    },
    {
      "inputs": [
        {
          "internalType": "address",
          "name": "_to",
          "type": "address"
        },
        {
          "internalType": "uint256",
          "name": "_mintAmount",
          "type": "uint256"
        }
      ],
      "name": "mint",
      "outputs": [],
      "stateMutability": "nonpayable",
      "type": "function"
    },
    {
      "inputs": [
        {
          "internalType": "address",
          "name": "_owner",
          "type": "address"
        }
      ],
      "name": "walletOfOwner",
      "outputs": [
        {
          "internalType": "uint256[]",
          "name": "",
          "type": "uint256[]"
        }
      ],
      "stateMutability": "view",
      "type": "function",
      "constant": true
    },
    {
      "inputs": [
        {
          "internalType": "uint256",
          "name": "tokenId",
          "type": "uint256"
        }
      ],
      "name": "tokenURI",
      "outputs": [
        {
          "internalType": "string",
          "name": "",
          "type": "string"
        }
      ],
      "stateMutability": "view",
      "type": "function",
      "constant": true
    },
    {
      "inputs": [
        {
          "internalType": "string",
          "name": "_newBaseURI",
          "type": "string"
        }
      ],
      "name": "setBaseURI",
      "outputs": [],
      "stateMutability": "nonpayable",
      "type": "function"
    }
  ],
  "bytecode": "0x60c06040526005608081905264173539b7b760d91b60a09081526200002891600d919062000935565b50655af3107a4000600e556103e8600f5560016010556011805460ff191690553480156200005557600080fd5b5060405162002be638038062002be6833981016040819052620000789162000ab1565b8351849084906200009190600090602085019062000935565b508051620000a790600190602084019062000935565b505050620000c4620000be6200015160201b60201c565b6200016d565b620000cf82620001bf565b600b80546001600160a01b0319166001600160a01b03831617905562000100620000f862000151565b6001620001d8565b6040805180820190915260158082527f48656c6c6f204d6574617472616e73616374696f6e00000000000000000000006020909201918252620001469160139162000935565b505050505062000cbf565b6000620001686200026e60201b62000ca71760201c565b905090565b600a80546001600160a01b038381166001600160a01b0319831681179093556040519116919082907f8be0079c531659141344cd1fd0a4f28419497f9722a3daafe3b4186f6b6457e090600090a35050565b8051620001d490600c90602084019062000935565b5050565b6000620001e460085490565b60115490915060ff1615620001f857600080fd5b600082116200020657600080fd5b6010548211156200021657600080fd5b600f5462000225838362000b7a565b11156200023157600080fd5b60015b828111620002685762000253846200024d838562000b7a565b620002a4565b806200025f8162000b95565b91505062000234565b50505050565b6000601436108015906200028c5750600b546001600160a01b031633145b156200029f575060131936013560601c90565b503390565b620001d4828260405180602001604052806000815250620002c660201b60201c565b620002d2838362000342565b620002e1600084848462000498565b6200033d5760405162461bcd60e51b8152602060048201526032602482015260008051602062002bc683398151915260448201527131b2b4bb32b91034b6b83632b6b2b73a32b960711b60648201526084015b60405180910390fd5b505050565b6001600160a01b0382166200039a5760405162461bcd60e51b815260206004820181905260248201527f4552433732313a206d696e7420746f20746865207a65726f2061646472657373604482015260640162000334565b6000818152600260205260409020546001600160a01b031615620004015760405162461bcd60e51b815260206004820152601c60248201527f4552433732313a20746f6b656e20616c7265616479206d696e74656400000000604482015260640162000334565b6200040f600083836200060a565b6001600160a01b03821660009081526003602052604081208054600192906200043a90849062000b7a565b909155505060008181526002602052604080822080546001600160a01b0319166001600160a01b03861690811790915590518392907fddf252ad1be2c89b69c2b068fc378daa952ba7f163c4a11628f55a4df523b3ef908290a45050565b6000620004b9846001600160a01b0316620006e660201b62000cdb1760201c565b15620005fe576001600160a01b03841663150b7a02620004d862000151565b8786866040518563ffffffff1660e01b8152600401620004fc949392919062000bb3565b602060405180830381600087803b1580156200051757600080fd5b505af19250505080156200054a575060408051601f3d908101601f19168201909252620005479181019062000c09565b60015b620005e3573d8080156200057b576040519150601f19603f3d011682016040523d82523d6000602084013e62000580565b606091505b508051620005db5760405162461bcd60e51b8152602060048201526032602482015260008051602062002bc683398151915260448201527131b2b4bb32b91034b6b83632b6b2b73a32b960711b606482015260840162000334565b805181602001fd5b6001600160e01b031916630a85bd0160e11b14905062000602565b5060015b949350505050565b620006228383836200033d60201b620006a01760201c565b6001600160a01b03831662000680576200067a81600880546000838152600960205260408120829055600182018355919091527ff3f7a9fe364faab93b216da50a3214154f22a0a2b415b23a84c8169e8b636ee30155565b620006a6565b816001600160a01b0316836001600160a01b031614620006a657620006a68382620006f5565b6001600160a01b038216620006c0576200033d81620007a2565b826001600160a01b0316826001600160a01b0316146200033d576200033d82826200085c565b6001600160a01b03163b151590565b600060016200070f84620008ad60201b62000a4f1760201c565b6200071b919062000c3c565b6000838152600760205260409020549091508082146200076f576001600160a01b03841660009081526006602090815260408083208584528252808320548484528184208190558352600790915290208190555b5060009182526007602090815260408084208490556001600160a01b039094168352600681528383209183525290812055565b600854600090620007b69060019062000c3c565b60008381526009602052604081205460088054939450909284908110620007e157620007e162000c56565b90600052602060002001549050806008838154811062000805576200080562000c56565b600091825260208083209091019290925582815260099091526040808220849055858252812055600880548062000840576200084062000c6c565b6001900381819060005260206000200160009055905550505050565b60006200087483620008ad60201b62000a4f1760201c565b6001600160a01b039093166000908152600660209081526040808320868452825280832085905593825260079052919091209190915550565b60006001600160a01b038216620009195760405162461bcd60e51b815260206004820152602960248201527f4552433732313a2061646472657373207a65726f206973206e6f7420612076616044820152683634b21037bbb732b960b91b606482015260840162000334565b506001600160a01b031660009081526003602052604090205490565b828054620009439062000c82565b90600052602060002090601f016020900481019282620009675760008555620009b2565b82601f106200098257805160ff1916838001178555620009b2565b82800160010185558215620009b2579182015b82811115620009b257825182559160200191906001019062000995565b50620009c0929150620009c4565b5090565b5b80821115620009c05760008155600101620009c5565b634e487b7160e01b600052604160045260246000fd5b60005b8381101562000a0e578181015183820152602001620009f4565b83811115620002685750506000910152565b600082601f83011262000a3257600080fd5b81516001600160401b038082111562000a4f5762000a4f620009db565b604051601f8301601f19908116603f0116810190828211818310171562000a7a5762000a7a620009db565b8160405283815286602085880101111562000a9457600080fd5b62000aa7846020830160208901620009f1565b9695505050505050565b6000806000806080858703121562000ac857600080fd5b84516001600160401b038082111562000ae057600080fd5b62000aee8883890162000a20565b9550602087015191508082111562000b0557600080fd5b62000b138883890162000a20565b9450604087015191508082111562000b2a57600080fd5b5062000b398782880162000a20565b606087015190935090506001600160a01b038116811462000b5957600080fd5b939692955090935050565b634e487b7160e01b600052601160045260246000fd5b6000821982111562000b905762000b9062000b64565b500190565b600060001982141562000bac5762000bac62000b64565b5060010190565b600060018060a01b03808716835280861660208401525083604083015260806060830152825180608084015262000bf28160a0850160208701620009f1565b601f01601f19169190910160a00195945050505050565b60006020828403121562000c1c57600080fd5b81516001600160e01b03198116811462000c3557600080fd5b9392505050565b60008282101562000c515762000c5162000b64565b500390565b634e487b7160e01b600052603260045260246000fd5b634e487b7160e01b600052603160045260246000fd5b600181811c9082168062000c9757607f821691505b6020821081141562000cb957634e487b7160e01b600052602260045260246000fd5b50919050565b611ef78062000ccf6000396000f3fe608060405234801561001057600080fd5b50600436106101f05760003560e01c80635c975abb1161010f578063a22cb465116100a2578063d5abeb0111610071578063d5abeb0114610419578063d936547e14610422578063e985e9c514610445578063f2fde38b1461048157600080fd5b8063a22cb465146103d8578063b88d4fde146103eb578063c6682862146103fe578063c87b56dd1461040657600080fd5b8063715018a6116100de578063715018a6146103a65780637da0a877146103ae5780638da5cb5b146103bf57806395d89b41146103d057600080fd5b80635c975abb1461036b5780636352211e146103785780636c0360eb1461038b57806370a082311461039357600080fd5b80632f745c5911610187578063486ff0cd11610156578063486ff0cd146103065780634f6ccce71461032357806355f804b314610336578063572b6c051461034957600080fd5b80632f745c59146102ad57806340c10f19146102c057806342842e0e146102d3578063438b6300146102e657600080fd5b806313faede6116101c357806313faede61461027257806318160ddd14610289578063239c70ae1461029157806323b872dd1461029a57600080fd5b806301ffc9a7146101f557806306fdde031461021d578063081812fc14610232578063095ea7b31461025d575b600080fd5b6102086102033660046118bc565b610494565b60405190151581526020015b60405180910390f35b6102256104bf565b6040516102149190611931565b610245610240366004611944565b610551565b6040516001600160a01b039091168152602001610214565b61027061026b366004611979565b610578565b005b61027b600e5481565b604051908152602001610214565b60085461027b565b61027b60105481565b6102706102a83660046119a3565b6106a5565b61027b6102bb366004611979565b6106dd565b6102706102ce366004611979565b610773565b6102706102e13660046119a3565b6107fa565b6102f96102f43660046119df565b610815565b60405161021491906119fa565b6040805180820190915260018152603160f81b6020820152610225565b61027b610331366004611944565b6108b7565b610270610344366004611aca565b61094a565b6102086103573660046119df565b600b546001600160a01b0391821691161490565b6011546102089060ff1681565b610245610386366004611944565b610961565b6102256109c1565b61027b6103a13660046119df565b610a4f565b610270610ad5565b600b546001600160a01b0316610245565b600a546001600160a01b0316610245565b610225610ae9565b6102706103e6366004611b13565b610af8565b6102706103f9366004611b4f565b610b0a565b610225610b43565b610225610414366004611944565b610b50565b61027b600f5481565b6102086104303660046119df565b60126020526000908152604090205460ff1681565b610208610453366004611bcb565b6001600160a01b03918216600090815260056020908152604080832093909416825291909152205460ff1690565b61027061048f3660046119df565b610c2e565b60006001600160e01b0319821663780e9d6360e01b14806104b957506104b982610cea565b92915050565b6060600080546104ce90611bfe565b80601f01602080910402602001604051908101604052809291908181526020018280546104fa90611bfe565b80156105475780601f1061051c57610100808354040283529160200191610547565b820191906000526020600020905b81548152906001019060200180831161052a57829003601f168201915b5050505050905090565b600061055c82610d3a565b506000908152600460205260409020546001600160a01b031690565b600061058382610961565b9050806001600160a01b0316836001600160a01b031614156105f65760405162461bcd60e51b815260206004820152602160248201527f4552433732313a20617070726f76616c20746f2063757272656e74206f776e656044820152603960f91b60648201526084015b60405180910390fd5b806001600160a01b0316610608610d99565b6001600160a01b03161480610624575061062481610453610d99565b6106965760405162461bcd60e51b815260206004820152603e60248201527f4552433732313a20617070726f76652063616c6c6572206973206e6f7420746f60448201527f6b656e206f776e6572206e6f7220617070726f76656420666f7220616c6c000060648201526084016105ed565b6106a08383610da8565b505050565b6106b66106b0610d99565b82610e16565b6106d25760405162461bcd60e51b81526004016105ed90611c39565b6106a0838383610e95565b60006106e883610a4f565b821061074a5760405162461bcd60e51b815260206004820152602b60248201527f455243373231456e756d657261626c653a206f776e657220696e646578206f7560448201526a74206f6620626f756e647360a81b60648201526084016105ed565b506001600160a01b03919091166000908152600660209081526040808320938352929052205490565b600061077e60085490565b60115490915060ff161561079157600080fd5b6000821161079e57600080fd5b6010548211156107ad57600080fd5b600f546107ba8383611c9d565b11156107c557600080fd5b60015b8281116107f4576107e2846107dd8385611c9d565b61103c565b806107ec81611cb5565b9150506107c8565b50505050565b6106a083838360405180602001604052806000815250610b0a565b6060600061082283610a4f565b905060008167ffffffffffffffff81111561083f5761083f611a3e565b604051908082528060200260200182016040528015610868578160200160208202803683370190505b50905060005b828110156108af5761088085826106dd565b82828151811061089257610892611cd0565b6020908102919091010152806108a781611cb5565b91505061086e565b509392505050565b60006108c260085490565b82106109255760405162461bcd60e51b815260206004820152602c60248201527f455243373231456e756d657261626c653a20676c6f62616c20696e646578206f60448201526b7574206f6620626f756e647360a01b60648201526084016105ed565b6008828154811061093857610938611cd0565b90600052602060002001549050919050565b805161095d90600c90602084019061180d565b5050565b6000818152600260205260408120546001600160a01b0316806104b95760405162461bcd60e51b8152602060048201526018602482015277115490cdcc8c4e881a5b9d985b1a59081d1bdad95b88125160421b60448201526064016105ed565b600c80546109ce90611bfe565b80601f01602080910402602001604051908101604052809291908181526020018280546109fa90611bfe565b8015610a475780601f10610a1c57610100808354040283529160200191610a47565b820191906000526020600020905b815481529060010190602001808311610a2a57829003601f168201915b505050505081565b60006001600160a01b038216610ab95760405162461bcd60e51b815260206004820152602960248201527f4552433732313a2061646472657373207a65726f206973206e6f7420612076616044820152683634b21037bbb732b960b91b60648201526084016105ed565b506001600160a01b031660009081526003602052604090205490565b610add611056565b610ae760006110cf565b565b6060600180546104ce90611bfe565b61095d610b03610d99565b8383611121565b610b1b610b15610d99565b83610e16565b610b375760405162461bcd60e51b81526004016105ed90611c39565b6107f4848484846111f0565b600d80546109ce90611bfe565b6000818152600260205260409020546060906001600160a01b0316610bcf5760405162461bcd60e51b815260206004820152602f60248201527f4552433732314d657461646174613a2055524920717565727920666f72206e6f60448201526e3732bc34b9ba32b73a103a37b5b2b760891b60648201526084016105ed565b6000610bd9611223565b90506000815111610bf95760405180602001604052806000815250610c27565b80610c0384611232565b600d604051602001610c1793929190611ce6565b6040516020818303038152906040525b9392505050565b610c36611056565b6001600160a01b038116610c9b5760405162461bcd60e51b815260206004820152602660248201527f4f776e61626c653a206e6577206f776e657220697320746865207a65726f206160448201526564647265737360d01b60648201526084016105ed565b610ca4816110cf565b50565b600060143610801590610cc45750600b546001600160a01b031633145b15610cd6575060131936013560601c90565b503390565b6001600160a01b03163b151590565b60006001600160e01b031982166380ac58cd60e01b1480610d1b57506001600160e01b03198216635b5e139f60e01b145b806104b957506301ffc9a760e01b6001600160e01b03198316146104b9565b6000818152600260205260409020546001600160a01b0316610ca45760405162461bcd60e51b8152602060048201526018602482015277115490cdcc8c4e881a5b9d985b1a59081d1bdad95b88125160421b60448201526064016105ed565b6000610da3610ca7565b905090565b600081815260046020526040902080546001600160a01b0319166001600160a01b0384169081179091558190610ddd82610961565b6001600160a01b03167f8c5be1e5ebec7d5bd14f71427d1e84f3dd0314c0f7b2291e5b200ac8c7c3b92560405160405180910390a45050565b600080610e2283610961565b9050806001600160a01b0316846001600160a01b03161480610e6957506001600160a01b0380821660009081526005602090815260408083209388168352929052205460ff165b80610e8d5750836001600160a01b0316610e8284610551565b6001600160a01b0316145b949350505050565b826001600160a01b0316610ea882610961565b6001600160a01b031614610f0c5760405162461bcd60e51b815260206004820152602560248201527f4552433732313a207472616e736665722066726f6d20696e636f72726563742060448201526437bbb732b960d91b60648201526084016105ed565b6001600160a01b038216610f6e5760405162461bcd60e51b8152602060048201526024808201527f4552433732313a207472616e7366657220746f20746865207a65726f206164646044820152637265737360e01b60648201526084016105ed565b610f79838383611330565b610f84600082610da8565b6001600160a01b0383166000908152600360205260408120805460019290610fad908490611daa565b90915550506001600160a01b0382166000908152600360205260408120805460019290610fdb908490611c9d565b909155505060008181526002602052604080822080546001600160a01b0319166001600160a01b0386811691821790925591518493918716917fddf252ad1be2c89b69c2b068fc378daa952ba7f163c4a11628f55a4df523b3ef91a4505050565b61095d8282604051806020016040528060008152506113e8565b61105e610d99565b6001600160a01b0316611079600a546001600160a01b031690565b6001600160a01b031614610ae75760405162461bcd60e51b815260206004820181905260248201527f4f776e61626c653a2063616c6c6572206973206e6f7420746865206f776e657260448201526064016105ed565b600a80546001600160a01b038381166001600160a01b0319831681179093556040519116919082907f8be0079c531659141344cd1fd0a4f28419497f9722a3daafe3b4186f6b6457e090600090a35050565b816001600160a01b0316836001600160a01b031614156111835760405162461bcd60e51b815260206004820152601960248201527f4552433732313a20617070726f766520746f2063616c6c65720000000000000060448201526064016105ed565b6001600160a01b03838116600081815260056020908152604080832094871680845294825291829020805460ff191686151590811790915591519182527f17307eab39ab6107e8899845ad3d59bd9653f200f220920489ca2b5937696c31910160405180910390a3505050565b6111fb848484610e95565b6112078484848461141b565b6107f45760405162461bcd60e51b81526004016105ed90611dc1565b6060600c80546104ce90611bfe565b6060816112565750506040805180820190915260018152600360fc1b602082015290565b8160005b8115611280578061126a81611cb5565b91506112799050600a83611e29565b915061125a565b60008167ffffffffffffffff81111561129b5761129b611a3e565b6040519080825280601f01601f1916602001820160405280156112c5576020820181803683370190505b5090505b8415610e8d576112da600183611daa565b91506112e7600a86611e3d565b6112f2906030611c9d565b60f81b81838151811061130757611307611cd0565b60200101906001600160f81b031916908160001a905350611329600a86611e29565b94506112c9565b6001600160a01b03831661138b5761138681600880546000838152600960205260408120829055600182018355919091527ff3f7a9fe364faab93b216da50a3214154f22a0a2b415b23a84c8169e8b636ee30155565b6113ae565b816001600160a01b0316836001600160a01b0316146113ae576113ae838261152f565b6001600160a01b0382166113c5576106a0816115cc565b826001600160a01b0316826001600160a01b0316146106a0576106a0828261167b565b6113f283836116bf565b6113ff600084848461141b565b6106a05760405162461bcd60e51b81526004016105ed90611dc1565b60006001600160a01b0384163b1561152457836001600160a01b031663150b7a02611444610d99565b8786866040518563ffffffff1660e01b81526004016114669493929190611e51565b602060405180830381600087803b15801561148057600080fd5b505af19250505080156114b0575060408051601f3d908101601f191682019092526114ad91810190611e8e565b60015b61150a573d8080156114de576040519150601f19603f3d011682016040523d82523d6000602084013e6114e3565b606091505b5080516115025760405162461bcd60e51b81526004016105ed90611dc1565b805181602001fd5b6001600160e01b031916630a85bd0160e11b149050610e8d565b506001949350505050565b6000600161153c84610a4f565b6115469190611daa565b600083815260076020526040902054909150808214611599576001600160a01b03841660009081526006602090815260408083208584528252808320548484528184208190558352600790915290208190555b5060009182526007602090815260408084208490556001600160a01b039094168352600681528383209183525290812055565b6008546000906115de90600190611daa565b6000838152600960205260408120546008805493945090928490811061160657611606611cd0565b90600052602060002001549050806008838154811061162757611627611cd0565b600091825260208083209091019290925582815260099091526040808220849055858252812055600880548061165f5761165f611eab565b6001900381819060005260206000200160009055905550505050565b600061168683610a4f565b6001600160a01b039093166000908152600660209081526040808320868452825280832085905593825260079052919091209190915550565b6001600160a01b0382166117155760405162461bcd60e51b815260206004820181905260248201527f4552433732313a206d696e7420746f20746865207a65726f206164647265737360448201526064016105ed565b6000818152600260205260409020546001600160a01b03161561177a5760405162461bcd60e51b815260206004820152601c60248201527f4552433732313a20746f6b656e20616c7265616479206d696e7465640000000060448201526064016105ed565b61178660008383611330565b6001600160a01b03821660009081526003602052604081208054600192906117af908490611c9d565b909155505060008181526002602052604080822080546001600160a01b0319166001600160a01b03861690811790915590518392907fddf252ad1be2c89b69c2b068fc378daa952ba7f163c4a11628f55a4df523b3ef908290a45050565b82805461181990611bfe565b90600052602060002090601f01602090048101928261183b5760008555611881565b82601f1061185457805160ff1916838001178555611881565b82800160010185558215611881579182015b82811115611881578251825591602001919060010190611866565b5061188d929150611891565b5090565b5b8082111561188d5760008155600101611892565b6001600160e01b031981168114610ca457600080fd5b6000602082840312156118ce57600080fd5b8135610c27816118a6565b60005b838110156118f45781810151838201526020016118dc565b838111156107f45750506000910152565b6000815180845261191d8160208601602086016118d9565b601f01601f19169290920160200192915050565b602081526000610c276020830184611905565b60006020828403121561195657600080fd5b5035919050565b80356001600160a01b038116811461197457600080fd5b919050565b6000806040838503121561198c57600080fd5b6119958361195d565b946020939093013593505050565b6000806000606084860312156119b857600080fd5b6119c18461195d565b92506119cf6020850161195d565b9150604084013590509250925092565b6000602082840312156119f157600080fd5b610c278261195d565b6020808252825182820181905260009190848201906040850190845b81811015611a3257835183529284019291840191600101611a16565b50909695505050505050565b634e487b7160e01b600052604160045260246000fd5b600067ffffffffffffffff80841115611a6f57611a6f611a3e565b604051601f8501601f19908116603f01168101908282118183101715611a9757611a97611a3e565b81604052809350858152868686011115611ab057600080fd5b858560208301376000602087830101525050509392505050565b600060208284031215611adc57600080fd5b813567ffffffffffffffff811115611af357600080fd5b8201601f81018413611b0457600080fd5b610e8d84823560208401611a54565b60008060408385031215611b2657600080fd5b611b2f8361195d565b915060208301358015158114611b4457600080fd5b809150509250929050565b60008060008060808587031215611b6557600080fd5b611b6e8561195d565b9350611b7c6020860161195d565b925060408501359150606085013567ffffffffffffffff811115611b9f57600080fd5b8501601f81018713611bb057600080fd5b611bbf87823560208401611a54565b91505092959194509250565b60008060408385031215611bde57600080fd5b611be78361195d565b9150611bf56020840161195d565b90509250929050565b600181811c90821680611c1257607f821691505b60208210811415611c3357634e487b7160e01b600052602260045260246000fd5b50919050565b6020808252602e908201527f4552433732313a2063616c6c6572206973206e6f7420746f6b656e206f776e6560408201526d1c881b9bdc88185c1c1c9bdd995960921b606082015260800190565b634e487b7160e01b600052601160045260246000fd5b60008219821115611cb057611cb0611c87565b500190565b6000600019821415611cc957611cc9611c87565b5060010190565b634e487b7160e01b600052603260045260246000fd5b600084516020611cf98285838a016118d9565b855191840191611d0c8184848a016118d9565b8554920191600090600181811c9080831680611d2957607f831692505b858310811415611d4757634e487b7160e01b85526022600452602485fd5b808015611d5b5760018114611d6c57611d99565b60ff19851688528388019550611d99565b60008b81526020902060005b85811015611d915781548a820152908401908801611d78565b505083880195505b50939b9a5050505050505050505050565b600082821015611dbc57611dbc611c87565b500390565b60208082526032908201527f4552433732313a207472616e7366657220746f206e6f6e20455243373231526560408201527131b2b4bb32b91034b6b83632b6b2b73a32b960711b606082015260800190565b634e487b7160e01b600052601260045260246000fd5b600082611e3857611e38611e13565b500490565b600082611e4c57611e4c611e13565b500690565b6001600160a01b0385811682528416602082015260408101839052608060608201819052600090611e8490830184611905565b9695505050505050565b600060208284031215611ea057600080fd5b8151610c27816118a6565b634e487b7160e01b600052603160045260246000fdfea2646970667358221220a2409b50c6fa627940088d366133d911dfac170fa0139bef7368ac91b5305dde64736f6c634300080900334552433732313a207472616e7366657220746f206e6f6e204552433732315265",
  "immutableReferences": {},
  "source": "// SPDX-License-Identifier: GPL-3.0\n\n// Amended by HashLips\n/**\n    !Disclaimer!\n    These contracts have been used to create tutorials,\n    and was created for the purpose to teach people\n    how to create smart contracts on the blockchain.\n    please review this code on your own before using any of\n    the following code for production.\n    HashLips will not be liable in any way if for the use \n    of the code. That being said, the code has been tested \n    to the best of the developers' knowledge to work as intended.\n*/\n\npragma solidity >=0.7.0 <0.9.0;\n\nimport \"@openzeppelin/contracts/token/ERC721/extensions/ERC721Enumerable.sol\";\nimport \"@openzeppelin/contracts/access/Ownable.sol\";\nimport \"@opengsn/contracts/src/BaseRelayRecipient.sol\";\n\ncontract DiANFT is ERC721Enumerable, Ownable, BaseRelayRecipient {\n  using Strings for uint256;\n\n  string public baseURI;\n  string public baseExtension = \".json\";\n  uint256 public cost = 0.0001 ether;\n  uint256 public maxSupply = 1000;\n  uint256 public maxMintAmount = 1;\n  bool public paused = false;\n  mapping(address => bool) public whitelisted;\n  //address public override owner;\n  string data;\n  // modifier onlyOwner() {\n  //   require(owner == _msgSender(), \"\");\n  //   _;\n  //   }\n\n  constructor(\n    string memory _name,\n    string memory _symbol,\n    string memory _initBaseURI,\n    address _trustedForwarder\n  ) ERC721(_name, _symbol) {\n    setBaseURI(_initBaseURI);\n    _setTrustedForwarder(_trustedForwarder);\n    mint(_msgSender(), 1);\n    data = \"Hello Metatransaction\";\n  }\n\n  function _msgSender() internal view override(Context, BaseRelayRecipient)\n      returns (address sender) {\n      sender = BaseRelayRecipient._msgSender();\n  }\n\n  function _msgData() internal view override(Context, BaseRelayRecipient)\n      returns (bytes calldata) {\n      return BaseRelayRecipient._msgData();\n  }\n\n  // internal\n  function _baseURI() internal view virtual override returns (string memory) {\n    return baseURI;\n  }\n\nfunction versionRecipient() external pure override returns (string memory) {\n        return \"1\";\n    }\n\n//    function setTrustForwarder(address _trustedForwarder) public onlyOwner {\n//         _setTrustedForwarder(_trustedForwarder);\n//     }\n\n  // public\n  function mint(address _to, uint256 _mintAmount) public {\n    uint256 supply = totalSupply();\n    require(!paused);\n    require(_mintAmount > 0);\n    require(_mintAmount <= maxMintAmount);\n    require(supply + _mintAmount <= maxSupply);\n\n    // if (_msgSender() != owner()) {\n    //     if(whitelisted[_msgSender()] != true) {\n    //       require(msg.value >= cost * _mintAmount);\n    //     }\n    // }\n\n    for (uint256 i = 1; i <= _mintAmount; i++) {\n      _safeMint(_to, supply + i);\n    }\n  }\n\n  function walletOfOwner(address _owner)\n    public\n    view\n    returns (uint256[] memory)\n  {\n    uint256 ownerTokenCount = balanceOf(_owner);\n    uint256[] memory tokenIds = new uint256[](ownerTokenCount);\n    for (uint256 i; i < ownerTokenCount; i++) {\n      tokenIds[i] = tokenOfOwnerByIndex(_owner, i);\n    }\n    return tokenIds;\n  }\n\n  function tokenURI(uint256 tokenId)\n    public\n    view\n    virtual\n    override\n    returns (string memory)\n  {\n    require(\n      _exists(tokenId),\n      \"ERC721Metadata: URI query for nonexistent token\"\n    );\n\n    string memory currentBaseURI = _baseURI();\n    return bytes(currentBaseURI).length > 0\n        ? string(abi.encodePacked(currentBaseURI, tokenId.toString(), baseExtension))\n        : \"\";\n  }\n\n//   //only owner\n//   function setCost(uint256 _newCost) public onlyOwner {\n//     cost = _newCost;\n//   }\n\n//   function setmaxMintAmount(uint256 _newmaxMintAmount) public onlyOwner {\n//     maxMintAmount = _newmaxMintAmount;\n//   }\n\n  function setBaseURI(string memory _newBaseURI) public {\n    baseURI = _newBaseURI;\n  }\n\n//   function setBaseExtension(string memory _newBaseExtension) public onlyOwner {\n//     baseExtension = _newBaseExtension;\n//   }\n\n//   function pause(bool _state) public onlyOwner {\n//     paused = _state;\n//   }\n \n//  function whitelistUser(address _user) public onlyOwner {\n//     whitelisted[_user] = true;\n//   }\n \n//   function removeWhitelistUser(address _user) public onlyOwner {\n//     whitelisted[_user] = false;\n//   }\n\n//   function withdraw() public payable onlyOwner {    \n//     // This will payout the owner 95% of the contract balance.\n//     // Do not remove this otherwise you will not be able to withdraw the funds.\n//     // =============================================================================\n//     (bool os, ) = payable(owner()).call{value: address(this).balance}(\"\");\n//     require(os);\n//     // =============================================================================\n//   }\n}",
  "sourcePath": "/Users/PRATIKS1/Desktop/MySpace/meta/moralis-biconomy-metatransactions/Truffle/contracts/DiANFT.sol",
  "compiler": {
    "name": "solc",
    "version": "0.8.9+commit.e5eed63a.Emscripten.clang"
  },
  "schemaVersion": "3.4.7",
  "updatedAt": "2022-07-04T08:04:45.184Z",
  "networkType": "ethereum",
  "devdoc": {
    "kind": "dev",
    "methods": {
      "approve(address,uint256)": {
        "details": "See {IERC721-approve}."
      },
      "balanceOf(address)": {
        "details": "See {IERC721-balanceOf}."
      },
      "getApproved(uint256)": {
        "details": "See {IERC721-getApproved}."
      },
      "isApprovedForAll(address,address)": {
        "details": "See {IERC721-isApprovedForAll}."
      },
      "name()": {
        "details": "See {IERC721Metadata-name}."
      },
      "owner()": {
        "details": "Returns the address of the current owner."
      },
      "ownerOf(uint256)": {
        "details": "See {IERC721-ownerOf}."
      },
      "renounceOwnership()": {
        "details": "Leaves the contract without owner. It will not be possible to call `onlyOwner` functions anymore. Can only be called by the current owner. NOTE: Renouncing ownership will leave the contract without an owner, thereby removing any functionality that is only available to the owner."
      },
      "safeTransferFrom(address,address,uint256)": {
        "details": "See {IERC721-safeTransferFrom}."
      },
      "safeTransferFrom(address,address,uint256,bytes)": {
        "details": "See {IERC721-safeTransferFrom}."
      },
      "setApprovalForAll(address,bool)": {
        "details": "See {IERC721-setApprovalForAll}."
      },
      "supportsInterface(bytes4)": {
        "details": "See {IERC165-supportsInterface}."
      },
      "symbol()": {
        "details": "See {IERC721Metadata-symbol}."
      },
      "tokenByIndex(uint256)": {
        "details": "See {IERC721Enumerable-tokenByIndex}."
      },
      "tokenOfOwnerByIndex(address,uint256)": {
        "details": "See {IERC721Enumerable-tokenOfOwnerByIndex}."
      },
      "tokenURI(uint256)": {
        "details": "See {IERC721Metadata-tokenURI}."
      },
      "totalSupply()": {
        "details": "See {IERC721Enumerable-totalSupply}."
      },
      "transferFrom(address,address,uint256)": {
        "details": "See {IERC721-transferFrom}."
      },
      "transferOwnership(address)": {
        "details": "Transfers ownership of the contract to a new account (`newOwner`). Can only be called by the current owner."
      }
    },
    "version": 1
  },
  "userdoc": {
    "kind": "user",
    "methods": {
      "isTrustedForwarder(address)": {
        "notice": "return if the forwarder is trusted to forward relayed transactions to us. the forwarder is required to verify the sender's signature, and verify the call is not a replay."
      }
    },
    "version": 1
  }
}