{
  "contractName": "DiANFT",
  "abi": [
    {
      "inputs": [
        {
          "internalType": "string",
          "name": "_name",
          "type": "string"
        },
        {
          "internalType": "string",
          "name": "_symbol",
          "type": "string"
        },
        {
          "internalType": "string",
          "name": "_initBaseURI",
          "type": "string"
        },
        {
          "internalType": "address",
          "name": "_trustedForwarder",
          "type": "address"
        }
      ],
      "stateMutability": "nonpayable",
      "type": "constructor"
    },
    {
      "anonymous": false,
      "inputs": [
        {
          "indexed": true,
          "internalType": "address",
          "name": "owner",
          "type": "address"
        },
        {
          "indexed": true,
          "internalType": "address",
          "name": "approved",
          "type": "address"
        },
        {
          "indexed": true,
          "internalType": "uint256",
          "name": "tokenId",
          "type": "uint256"
        }
      ],
      "name": "Approval",
      "type": "event"
    },
    {
      "anonymous": false,
      "inputs": [
        {
          "indexed": true,
          "internalType": "address",
          "name": "owner",
          "type": "address"
        },
        {
          "indexed": true,
          "internalType": "address",
          "name": "operator",
          "type": "address"
        },
        {
          "indexed": false,
          "internalType": "bool",
          "name": "approved",
          "type": "bool"
        }
      ],
      "name": "ApprovalForAll",
      "type": "event"
    },
    {
      "anonymous": false,
      "inputs": [
        {
          "indexed": true,
          "internalType": "address",
          "name": "previousOwner",
          "type": "address"
        },
        {
          "indexed": true,
          "internalType": "address",
          "name": "newOwner",
          "type": "address"
        }
      ],
      "name": "OwnershipTransferred",
      "type": "event"
    },
    {
      "anonymous": false,
      "inputs": [
        {
          "indexed": true,
          "internalType": "address",
          "name": "from",
          "type": "address"
        },
        {
          "indexed": true,
          "internalType": "address",
          "name": "to",
          "type": "address"
        },
        {
          "indexed": true,
          "internalType": "uint256",
          "name": "tokenId",
          "type": "uint256"
        }
      ],
      "name": "Transfer",
      "type": "event"
    },
    {
      "inputs": [
        {
          "internalType": "address",
          "name": "to",
          "type": "address"
        },
        {
          "internalType": "uint256",
          "name": "tokenId",
          "type": "uint256"
        }
      ],
      "name": "approve",
      "outputs": [],
      "stateMutability": "nonpayable",
      "type": "function"
    },
    {
      "inputs": [
        {
          "internalType": "address",
          "name": "owner",
          "type": "address"
        }
      ],
      "name": "balanceOf",
      "outputs": [
        {
          "internalType": "uint256",
          "name": "",
          "type": "uint256"
        }
      ],
      "stateMutability": "view",
      "type": "function",
      "constant": true
    },
    {
      "inputs": [],
      "name": "baseExtension",
      "outputs": [
        {
          "internalType": "string",
          "name": "",
          "type": "string"
        }
      ],
      "stateMutability": "view",
      "type": "function",
      "constant": true
    },
    {
      "inputs": [],
      "name": "baseURI",
      "outputs": [
        {
          "internalType": "string",
          "name": "",
          "type": "string"
        }
      ],
      "stateMutability": "view",
      "type": "function",
      "constant": true
    },
    {
      "inputs": [],
      "name": "cost",
      "outputs": [
        {
          "internalType": "uint256",
          "name": "",
          "type": "uint256"
        }
      ],
      "stateMutability": "view",
      "type": "function",
      "constant": true
    },
    {
      "inputs": [
        {
          "internalType": "uint256",
          "name": "tokenId",
          "type": "uint256"
        }
      ],
      "name": "getApproved",
      "outputs": [
        {
          "internalType": "address",
          "name": "",
          "type": "address"
        }
      ],
      "stateMutability": "view",
      "type": "function",
      "constant": true
    },
    {
      "inputs": [
        {
          "internalType": "address",
          "name": "owner",
          "type": "address"
        },
        {
          "internalType": "address",
          "name": "operator",
          "type": "address"
        }
      ],
      "name": "isApprovedForAll",
      "outputs": [
        {
          "internalType": "bool",
          "name": "",
          "type": "bool"
        }
      ],
      "stateMutability": "view",
      "type": "function",
      "constant": true
    },
    {
      "inputs": [
        {
          "internalType": "address",
          "name": "forwarder",
          "type": "address"
        }
      ],
      "name": "isTrustedForwarder",
      "outputs": [
        {
          "internalType": "bool",
          "name": "",
          "type": "bool"
        }
      ],
      "stateMutability": "view",
      "type": "function",
      "constant": true
    },
    {
      "inputs": [],
      "name": "maxMintAmount",
      "outputs": [
        {
          "internalType": "uint256",
          "name": "",
          "type": "uint256"
        }
      ],
      "stateMutability": "view",
      "type": "function",
      "constant": true
    },
    {
      "inputs": [],
      "name": "maxSupply",
      "outputs": [
        {
          "internalType": "uint256",
          "name": "",
          "type": "uint256"
        }
      ],
      "stateMutability": "view",
      "type": "function",
      "constant": true
    },
    {
      "inputs": [],
      "name": "name",
      "outputs": [
        {
          "internalType": "string",
          "name": "",
          "type": "string"
        }
      ],
      "stateMutability": "view",
      "type": "function",
      "constant": true
    },
    {
      "inputs": [],
      "name": "owner",
      "outputs": [
        {
          "internalType": "address",
          "name": "",
          "type": "address"
        }
      ],
      "stateMutability": "view",
      "type": "function",
      "constant": true
    },
    {
      "inputs": [
        {
          "internalType": "uint256",
          "name": "tokenId",
          "type": "uint256"
        }
      ],
      "name": "ownerOf",
      "outputs": [
        {
          "internalType": "address",
          "name": "",
          "type": "address"
        }
      ],
      "stateMutability": "view",
      "type": "function",
      "constant": true
    },
    {
      "inputs": [],
      "name": "paused",
      "outputs": [
        {
          "internalType": "bool",
          "name": "",
          "type": "bool"
        }
      ],
      "stateMutability": "view",
      "type": "function",
      "constant": true
    },
    {
      "inputs": [],
      "name": "renounceOwnership",
      "outputs": [],
      "stateMutability": "nonpayable",
      "type": "function"
    },
    {
      "inputs": [
        {
          "internalType": "address",
          "name": "from",
          "type": "address"
        },
        {
          "internalType": "address",
          "name": "to",
          "type": "address"
        },
        {
          "internalType": "uint256",
          "name": "tokenId",
          "type": "uint256"
        }
      ],
      "name": "safeTransferFrom",
      "outputs": [],
      "stateMutability": "nonpayable",
      "type": "function"
    },
    {
      "inputs": [
        {
          "internalType": "address",
          "name": "from",
          "type": "address"
        },
        {
          "internalType": "address",
          "name": "to",
          "type": "address"
        },
        {
          "internalType": "uint256",
          "name": "tokenId",
          "type": "uint256"
        },
        {
          "internalType": "bytes",
          "name": "data",
          "type": "bytes"
        }
      ],
      "name": "safeTransferFrom",
      "outputs": [],
      "stateMutability": "nonpayable",
      "type": "function"
    },
    {
      "inputs": [
        {
          "internalType": "address",
          "name": "operator",
          "type": "address"
        },
        {
          "internalType": "bool",
          "name": "approved",
          "type": "bool"
        }
      ],
      "name": "setApprovalForAll",
      "outputs": [],
      "stateMutability": "nonpayable",
      "type": "function"
    },
    {
      "inputs": [
        {
          "internalType": "bytes4",
          "name": "interfaceId",
          "type": "bytes4"
        }
      ],
      "name": "supportsInterface",
      "outputs": [
        {
          "internalType": "bool",
          "name": "",
          "type": "bool"
        }
      ],
      "stateMutability": "view",
      "type": "function",
      "constant": true
    },
    {
      "inputs": [],
      "name": "symbol",
      "outputs": [
        {
          "internalType": "string",
          "name": "",
          "type": "string"
        }
      ],
      "stateMutability": "view",
      "type": "function",
      "constant": true
    },
    {
      "inputs": [
        {
          "internalType": "uint256",
          "name": "index",
          "type": "uint256"
        }
      ],
      "name": "tokenByIndex",
      "outputs": [
        {
          "internalType": "uint256",
          "name": "",
          "type": "uint256"
        }
      ],
      "stateMutability": "view",
      "type": "function",
      "constant": true
    },
    {
      "inputs": [
        {
          "internalType": "address",
          "name": "owner",
          "type": "address"
        },
        {
          "internalType": "uint256",
          "name": "index",
          "type": "uint256"
        }
      ],
      "name": "tokenOfOwnerByIndex",
      "outputs": [
        {
          "internalType": "uint256",
          "name": "",
          "type": "uint256"
        }
      ],
      "stateMutability": "view",
      "type": "function",
      "constant": true
    },
    {
      "inputs": [],
      "name": "totalSupply",
      "outputs": [
        {
          "internalType": "uint256",
          "name": "",
          "type": "uint256"
        }
      ],
      "stateMutability": "view",
      "type": "function",
      "constant": true
    },
    {
      "inputs": [
        {
          "internalType": "address",
          "name": "from",
          "type": "address"
        },
        {
          "internalType": "address",
          "name": "to",
          "type": "address"
        },
        {
          "internalType": "uint256",
          "name": "tokenId",
          "type": "uint256"
        }
      ],
      "name": "transferFrom",
      "outputs": [],
      "stateMutability": "nonpayable",
      "type": "function"
    },
    {
      "inputs": [
        {
          "internalType": "address",
          "name": "newOwner",
          "type": "address"
        }
      ],
      "name": "transferOwnership",
      "outputs": [],
      "stateMutability": "nonpayable",
      "type": "function"
    },
    {
      "inputs": [],
      "name": "trustedForwarder",
      "outputs": [
        {
          "internalType": "address",
          "name": "",
          "type": "address"
        }
      ],
      "stateMutability": "view",
      "type": "function",
      "constant": true
    },
    {
      "inputs": [
        {
          "internalType": "address",
          "name": "",
          "type": "address"
        }
      ],
      "name": "whitelisted",
      "outputs": [
        {
          "internalType": "bool",
          "name": "",
          "type": "bool"
        }
      ],
      "stateMutability": "view",
      "type": "function",
      "constant": true
    },
    {
      "inputs": [],
      "name": "versionRecipient",
      "outputs": [
        {
          "internalType": "string",
          "name": "",
          "type": "string"
        }
      ],
      "stateMutability": "pure",
      "type": "function",
      "constant": true
    },
    {
      "inputs": [
        {
          "internalType": "address",
          "name": "_to",
          "type": "address"
        },
        {
          "internalType": "uint256",
          "name": "_mintAmount",
          "type": "uint256"
        }
      ],
      "name": "mint",
      "outputs": [],
      "stateMutability": "payable",
      "type": "function",
      "payable": true
    },
    {
      "inputs": [
        {
          "internalType": "address",
          "name": "_owner",
          "type": "address"
        }
      ],
      "name": "walletOfOwner",
      "outputs": [
        {
          "internalType": "uint256[]",
          "name": "",
          "type": "uint256[]"
        }
      ],
      "stateMutability": "view",
      "type": "function",
      "constant": true
    },
    {
      "inputs": [
        {
          "internalType": "uint256",
          "name": "tokenId",
          "type": "uint256"
        }
      ],
      "name": "tokenURI",
      "outputs": [
        {
          "internalType": "string",
          "name": "",
          "type": "string"
        }
      ],
      "stateMutability": "view",
      "type": "function",
      "constant": true
    },
    {
      "inputs": [
        {
          "internalType": "uint256",
          "name": "_newCost",
          "type": "uint256"
        }
      ],
      "name": "setCost",
      "outputs": [],
      "stateMutability": "nonpayable",
      "type": "function"
    },
    {
      "inputs": [
        {
          "internalType": "uint256",
          "name": "_newmaxMintAmount",
          "type": "uint256"
        }
      ],
      "name": "setmaxMintAmount",
      "outputs": [],
      "stateMutability": "nonpayable",
      "type": "function"
    },
    {
      "inputs": [
        {
          "internalType": "string",
          "name": "_newBaseURI",
          "type": "string"
        }
      ],
      "name": "setBaseURI",
      "outputs": [],
      "stateMutability": "nonpayable",
      "type": "function"
    },
    {
      "inputs": [
        {
          "internalType": "string",
          "name": "_newBaseExtension",
          "type": "string"
        }
      ],
      "name": "setBaseExtension",
      "outputs": [],
      "stateMutability": "nonpayable",
      "type": "function"
    },
    {
      "inputs": [
        {
          "internalType": "bool",
          "name": "_state",
          "type": "bool"
        }
      ],
      "name": "pause",
      "outputs": [],
      "stateMutability": "nonpayable",
      "type": "function"
    },
    {
      "inputs": [
        {
          "internalType": "address",
          "name": "_user",
          "type": "address"
        }
      ],
      "name": "whitelistUser",
      "outputs": [],
      "stateMutability": "nonpayable",
      "type": "function"
    },
    {
      "inputs": [
        {
          "internalType": "address",
          "name": "_user",
          "type": "address"
        }
      ],
      "name": "removeWhitelistUser",
      "outputs": [],
      "stateMutability": "nonpayable",
      "type": "function"
    },
    {
      "inputs": [],
      "name": "withdraw",
      "outputs": [],
      "stateMutability": "payable",
      "type": "function",
      "payable": true
    }
  ],
  "bytecode": "0x60c06040526005608081905264173539b7b760d91b60a09081526200002891600d919062000a36565b50655af3107a4000600e556103e8600f5560016010556011805460ff191690553480156200005557600080fd5b506040516200317038038062003170833981016040819052620000789162000bb2565b8351849084906200009190600090602085019062000a36565b508051620000a790600190602084019062000a36565b505050620000c4620000be6200015160201b60201c565b6200016d565b620000cf82620001bf565b600b80546001600160a01b0319166001600160a01b03831617905562000100620000f862000151565b6001620001e2565b6040805180820190915260158082527f48656c6c6f204d6574617472616e73616374696f6e00000000000000000000006020909201918252620001469160139162000a36565b505050505062000de2565b600062000168620002ef60201b620010d61760201c565b905090565b600a80546001600160a01b038381166001600160a01b0319831681179093556040519116919082907f8be0079c531659141344cd1fd0a4f28419497f9722a3daafe3b4186f6b6457e090600090a35050565b620001c962000325565b8051620001de90600c90602084019062000a36565b5050565b6000620001ee60085490565b60115490915060ff16156200020257600080fd5b600082116200021057600080fd5b6010548211156200022057600080fd5b600f546200022f838362000c7b565b11156200023b57600080fd5b600a546001600160a01b03166200025162000151565b6001600160a01b031614620002b257601260006200026e62000151565b6001600160a01b0316815260208101919091526040016000205460ff161515600114620002b25781600e54620002a5919062000c96565b341015620002b257600080fd5b60015b828111620002e957620002d484620002ce838562000c7b565b620003a9565b80620002e08162000cb8565b915050620002b5565b50505050565b6000601436108015906200030d5750600b546001600160a01b031633145b1562000320575060131936013560601c90565b503390565b6200032f62000151565b6001600160a01b03166200034b600a546001600160a01b031690565b6001600160a01b031614620003a75760405162461bcd60e51b815260206004820181905260248201527f4f776e61626c653a2063616c6c6572206973206e6f7420746865206f776e657260448201526064015b60405180910390fd5b565b620001de828260405180602001604052806000815250620003cb60201b60201c565b620003d7838362000443565b620003e6600084848462000599565b6200043e5760405162461bcd60e51b815260206004820152603260248201526000805160206200315083398151915260448201527131b2b4bb32b91034b6b83632b6b2b73a32b960711b60648201526084016200039e565b505050565b6001600160a01b0382166200049b5760405162461bcd60e51b815260206004820181905260248201527f4552433732313a206d696e7420746f20746865207a65726f206164647265737360448201526064016200039e565b6000818152600260205260409020546001600160a01b031615620005025760405162461bcd60e51b815260206004820152601c60248201527f4552433732313a20746f6b656e20616c7265616479206d696e7465640000000060448201526064016200039e565b62000510600083836200070b565b6001600160a01b03821660009081526003602052604081208054600192906200053b90849062000c7b565b909155505060008181526002602052604080822080546001600160a01b0319166001600160a01b03861690811790915590518392907fddf252ad1be2c89b69c2b068fc378daa952ba7f163c4a11628f55a4df523b3ef908290a45050565b6000620005ba846001600160a01b0316620007e760201b6200110a1760201c565b15620006ff576001600160a01b03841663150b7a02620005d962000151565b8786866040518563ffffffff1660e01b8152600401620005fd949392919062000cd6565b602060405180830381600087803b1580156200061857600080fd5b505af19250505080156200064b575060408051601f3d908101601f19168201909252620006489181019062000d2c565b60015b620006e4573d8080156200067c576040519150601f19603f3d011682016040523d82523d6000602084013e62000681565b606091505b508051620006dc5760405162461bcd60e51b815260206004820152603260248201526000805160206200315083398151915260448201527131b2b4bb32b91034b6b83632b6b2b73a32b960711b60648201526084016200039e565b805181602001fd5b6001600160e01b031916630a85bd0160e11b14905062000703565b5060015b949350505050565b620007238383836200043e60201b620009561760201c565b6001600160a01b03831662000781576200077b81600880546000838152600960205260408120829055600182018355919091527ff3f7a9fe364faab93b216da50a3214154f22a0a2b415b23a84c8169e8b636ee30155565b620007a7565b816001600160a01b0316836001600160a01b031614620007a757620007a78382620007f6565b6001600160a01b038216620007c1576200043e81620008a3565b826001600160a01b0316826001600160a01b0316146200043e576200043e82826200095d565b6001600160a01b03163b151590565b600060016200081084620009ae60201b62000e591760201c565b6200081c919062000d5f565b60008381526007602052604090205490915080821462000870576001600160a01b03841660009081526006602090815260408083208584528252808320548484528184208190558352600790915290208190555b5060009182526007602090815260408084208490556001600160a01b039094168352600681528383209183525290812055565b600854600090620008b79060019062000d5f565b60008381526009602052604081205460088054939450909284908110620008e257620008e262000d79565b90600052602060002001549050806008838154811062000906576200090662000d79565b600091825260208083209091019290925582815260099091526040808220849055858252812055600880548062000941576200094162000d8f565b6001900381819060005260206000200160009055905550505050565b60006200097583620009ae60201b62000e591760201c565b6001600160a01b039093166000908152600660209081526040808320868452825280832085905593825260079052919091209190915550565b60006001600160a01b03821662000a1a5760405162461bcd60e51b815260206004820152602960248201527f4552433732313a2061646472657373207a65726f206973206e6f7420612076616044820152683634b21037bbb732b960b91b60648201526084016200039e565b506001600160a01b031660009081526003602052604090205490565b82805462000a449062000da5565b90600052602060002090601f01602090048101928262000a68576000855562000ab3565b82601f1062000a8357805160ff191683800117855562000ab3565b8280016001018555821562000ab3579182015b8281111562000ab357825182559160200191906001019062000a96565b5062000ac192915062000ac5565b5090565b5b8082111562000ac1576000815560010162000ac6565b634e487b7160e01b600052604160045260246000fd5b60005b8381101562000b0f57818101518382015260200162000af5565b83811115620002e95750506000910152565b600082601f83011262000b3357600080fd5b81516001600160401b038082111562000b505762000b5062000adc565b604051601f8301601f19908116603f0116810190828211818310171562000b7b5762000b7b62000adc565b8160405283815286602085880101111562000b9557600080fd5b62000ba884602083016020890162000af2565b9695505050505050565b6000806000806080858703121562000bc957600080fd5b84516001600160401b038082111562000be157600080fd5b62000bef8883890162000b21565b9550602087015191508082111562000c0657600080fd5b62000c148883890162000b21565b9450604087015191508082111562000c2b57600080fd5b5062000c3a8782880162000b21565b606087015190935090506001600160a01b038116811462000c5a57600080fd5b939692955090935050565b634e487b7160e01b600052601160045260246000fd5b6000821982111562000c915762000c9162000c65565b500190565b600081600019048311821515161562000cb35762000cb362000c65565b500290565b600060001982141562000ccf5762000ccf62000c65565b5060010190565b600060018060a01b03808716835280861660208401525083604083015260806060830152825180608084015262000d158160a085016020870162000af2565b601f01601f19169190910160a00195945050505050565b60006020828403121562000d3f57600080fd5b81516001600160e01b03198116811462000d5857600080fd5b9392505050565b60008282101562000d745762000d7462000c65565b500390565b634e487b7160e01b600052603260045260246000fd5b634e487b7160e01b600052603160045260246000fd5b600181811c9082168062000dba57607f821691505b6020821081141562000ddc57634e487b7160e01b600052602260045260246000fd5b50919050565b61235e8062000df26000396000f3fe6080604052600436106102305760003560e01c806355f804b31161012e57806395d89b41116100ab578063d5abeb011161006f578063d5abeb0114610660578063d936547e14610676578063da3ef23f146106a6578063e985e9c5146106c6578063f2fde38b1461070f57600080fd5b806395d89b41146105d6578063a22cb465146105eb578063b88d4fde1461060b578063c66828621461062b578063c87b56dd1461064057600080fd5b806370a08231116100f257806370a0823114610545578063715018a6146105655780637da0a8771461057a5780637f00c7a6146105985780638da5cb5b146105b857600080fd5b806355f804b3146104a7578063572b6c05146104c75780635c975abb146104f65780636352211e146105105780636c0360eb1461053057600080fd5b80632f745c59116101bc578063438b630011610180578063438b6300146103f057806344a0d68a1461041d578063486ff0cd1461043d5780634a4c560d146104675780634f6ccce71461048757600080fd5b80632f745c591461037557806330cc7ae0146103955780633ccfd60b146103b557806340c10f19146103bd57806342842e0e146103d057600080fd5b8063095ea7b311610203578063095ea7b3146102e657806313faede61461030657806318160ddd1461032a578063239c70ae1461033f57806323b872dd1461035557600080fd5b806301ffc9a71461023557806302329a291461026a57806306fdde031461028c578063081812fc146102ae575b600080fd5b34801561024157600080fd5b50610255610250366004611ceb565b61072f565b60405190151581526020015b60405180910390f35b34801561027657600080fd5b5061028a610285366004611d1d565b61075a565b005b34801561029857600080fd5b506102a1610775565b6040516102619190611d90565b3480156102ba57600080fd5b506102ce6102c9366004611da3565b610807565b6040516001600160a01b039091168152602001610261565b3480156102f257600080fd5b5061028a610301366004611dd3565b61082e565b34801561031257600080fd5b5061031c600e5481565b604051908152602001610261565b34801561033657600080fd5b5060085461031c565b34801561034b57600080fd5b5061031c60105481565b34801561036157600080fd5b5061028a610370366004611dfd565b61095b565b34801561038157600080fd5b5061031c610390366004611dd3565b610993565b3480156103a157600080fd5b5061028a6103b0366004611e39565b610a29565b61028a610a52565b61028a6103cb366004611dd3565b610ace565b3480156103dc57600080fd5b5061028a6103eb366004611dfd565b610bc3565b3480156103fc57600080fd5b5061041061040b366004611e39565b610bde565b6040516102619190611e54565b34801561042957600080fd5b5061028a610438366004611da3565b610c80565b34801561044957600080fd5b506040805180820190915260018152603160f81b60208201526102a1565b34801561047357600080fd5b5061028a610482366004611e39565b610c8d565b34801561049357600080fd5b5061031c6104a2366004611da3565b610cb9565b3480156104b357600080fd5b5061028a6104c2366004611f24565b610d4c565b3480156104d357600080fd5b506102556104e2366004611e39565b600b546001600160a01b0391821691161490565b34801561050257600080fd5b506011546102559060ff1681565b34801561051c57600080fd5b506102ce61052b366004611da3565b610d6b565b34801561053c57600080fd5b506102a1610dcb565b34801561055157600080fd5b5061031c610560366004611e39565b610e59565b34801561057157600080fd5b5061028a610edf565b34801561058657600080fd5b50600b546001600160a01b03166102ce565b3480156105a457600080fd5b5061028a6105b3366004611da3565b610ef3565b3480156105c457600080fd5b50600a546001600160a01b03166102ce565b3480156105e257600080fd5b506102a1610f00565b3480156105f757600080fd5b5061028a610606366004611f6d565b610f0f565b34801561061757600080fd5b5061028a610626366004611fa0565b610f21565b34801561063757600080fd5b506102a1610f5a565b34801561064c57600080fd5b506102a161065b366004611da3565b610f67565b34801561066c57600080fd5b5061031c600f5481565b34801561068257600080fd5b50610255610691366004611e39565b60126020526000908152604090205460ff1681565b3480156106b257600080fd5b5061028a6106c1366004611f24565b611045565b3480156106d257600080fd5b506102556106e136600461201c565b6001600160a01b03918216600090815260056020908152604080832093909416825291909152205460ff1690565b34801561071b57600080fd5b5061028a61072a366004611e39565b611060565b60006001600160e01b0319821663780e9d6360e01b1480610754575061075482611119565b92915050565b610762611169565b6011805460ff1916911515919091179055565b60606000805461078490612046565b80601f01602080910402602001604051908101604052809291908181526020018280546107b090612046565b80156107fd5780601f106107d2576101008083540402835291602001916107fd565b820191906000526020600020905b8154815290600101906020018083116107e057829003601f168201915b5050505050905090565b6000610812826111e2565b506000908152600460205260409020546001600160a01b031690565b600061083982610d6b565b9050806001600160a01b0316836001600160a01b031614156108ac5760405162461bcd60e51b815260206004820152602160248201527f4552433732313a20617070726f76616c20746f2063757272656e74206f776e656044820152603960f91b60648201526084015b60405180910390fd5b806001600160a01b03166108be611241565b6001600160a01b031614806108da57506108da816106e1611241565b61094c5760405162461bcd60e51b815260206004820152603e60248201527f4552433732313a20617070726f76652063616c6c6572206973206e6f7420746f60448201527f6b656e206f776e6572206e6f7220617070726f76656420666f7220616c6c000060648201526084016108a3565b6109568383611250565b505050565b61096c610966611241565b826112be565b6109885760405162461bcd60e51b81526004016108a390612081565b61095683838361133d565b600061099e83610e59565b8210610a005760405162461bcd60e51b815260206004820152602b60248201527f455243373231456e756d657261626c653a206f776e657220696e646578206f7560448201526a74206f6620626f756e647360a81b60648201526084016108a3565b506001600160a01b03919091166000908152600660209081526040808320938352929052205490565b610a31611169565b6001600160a01b03166000908152601260205260409020805460ff19169055565b610a5a611169565b6000610a6e600a546001600160a01b031690565b6001600160a01b03164760405160006040518083038185875af1925050503d8060008114610ab8576040519150601f19603f3d011682016040523d82523d6000602084013e610abd565b606091505b5050905080610acb57600080fd5b50565b6000610ad960085490565b60115490915060ff1615610aec57600080fd5b60008211610af957600080fd5b601054821115610b0857600080fd5b600f54610b1583836120e5565b1115610b2057600080fd5b600a546001600160a01b0316610b34611241565b6001600160a01b031614610b8e5760126000610b4e611241565b6001600160a01b0316815260208101919091526040016000205460ff161515600114610b8e5781600e54610b8291906120fd565b341015610b8e57600080fd5b60015b828111610bbd57610bab84610ba683856120e5565b6114e4565b80610bb58161211c565b915050610b91565b50505050565b61095683838360405180602001604052806000815250610f21565b60606000610beb83610e59565b905060008167ffffffffffffffff811115610c0857610c08611e98565b604051908082528060200260200182016040528015610c31578160200160208202803683370190505b50905060005b82811015610c7857610c498582610993565b828281518110610c5b57610c5b612137565b602090810291909101015280610c708161211c565b915050610c37565b509392505050565b610c88611169565b600e55565b610c95611169565b6001600160a01b03166000908152601260205260409020805460ff19166001179055565b6000610cc460085490565b8210610d275760405162461bcd60e51b815260206004820152602c60248201527f455243373231456e756d657261626c653a20676c6f62616c20696e646578206f60448201526b7574206f6620626f756e647360a01b60648201526084016108a3565b60088281548110610d3a57610d3a612137565b90600052602060002001549050919050565b610d54611169565b8051610d6790600c906020840190611c3c565b5050565b6000818152600260205260408120546001600160a01b0316806107545760405162461bcd60e51b8152602060048201526018602482015277115490cdcc8c4e881a5b9d985b1a59081d1bdad95b88125160421b60448201526064016108a3565b600c8054610dd890612046565b80601f0160208091040260200160405190810160405280929190818152602001828054610e0490612046565b8015610e515780601f10610e2657610100808354040283529160200191610e51565b820191906000526020600020905b815481529060010190602001808311610e3457829003601f168201915b505050505081565b60006001600160a01b038216610ec35760405162461bcd60e51b815260206004820152602960248201527f4552433732313a2061646472657373207a65726f206973206e6f7420612076616044820152683634b21037bbb732b960b91b60648201526084016108a3565b506001600160a01b031660009081526003602052604090205490565b610ee7611169565b610ef160006114fe565b565b610efb611169565b601055565b60606001805461078490612046565b610d67610f1a611241565b8383611550565b610f32610f2c611241565b836112be565b610f4e5760405162461bcd60e51b81526004016108a390612081565b610bbd8484848461161f565b600d8054610dd890612046565b6000818152600260205260409020546060906001600160a01b0316610fe65760405162461bcd60e51b815260206004820152602f60248201527f4552433732314d657461646174613a2055524920717565727920666f72206e6f60448201526e3732bc34b9ba32b73a103a37b5b2b760891b60648201526084016108a3565b6000610ff0611652565b90506000815111611010576040518060200160405280600081525061103e565b8061101a84611661565b600d60405160200161102e9392919061214d565b6040516020818303038152906040525b9392505050565b61104d611169565b8051610d6790600d906020840190611c3c565b611068611169565b6001600160a01b0381166110cd5760405162461bcd60e51b815260206004820152602660248201527f4f776e61626c653a206e6577206f776e657220697320746865207a65726f206160448201526564647265737360d01b60648201526084016108a3565b610acb816114fe565b6000601436108015906110f35750600b546001600160a01b031633145b15611105575060131936013560601c90565b503390565b6001600160a01b03163b151590565b60006001600160e01b031982166380ac58cd60e01b148061114a57506001600160e01b03198216635b5e139f60e01b145b8061075457506301ffc9a760e01b6001600160e01b0319831614610754565b611171611241565b6001600160a01b031661118c600a546001600160a01b031690565b6001600160a01b031614610ef15760405162461bcd60e51b815260206004820181905260248201527f4f776e61626c653a2063616c6c6572206973206e6f7420746865206f776e657260448201526064016108a3565b6000818152600260205260409020546001600160a01b0316610acb5760405162461bcd60e51b8152602060048201526018602482015277115490cdcc8c4e881a5b9d985b1a59081d1bdad95b88125160421b60448201526064016108a3565b600061124b6110d6565b905090565b600081815260046020526040902080546001600160a01b0319166001600160a01b038416908117909155819061128582610d6b565b6001600160a01b03167f8c5be1e5ebec7d5bd14f71427d1e84f3dd0314c0f7b2291e5b200ac8c7c3b92560405160405180910390a45050565b6000806112ca83610d6b565b9050806001600160a01b0316846001600160a01b0316148061131157506001600160a01b0380821660009081526005602090815260408083209388168352929052205460ff165b806113355750836001600160a01b031661132a84610807565b6001600160a01b0316145b949350505050565b826001600160a01b031661135082610d6b565b6001600160a01b0316146113b45760405162461bcd60e51b815260206004820152602560248201527f4552433732313a207472616e736665722066726f6d20696e636f72726563742060448201526437bbb732b960d91b60648201526084016108a3565b6001600160a01b0382166114165760405162461bcd60e51b8152602060048201526024808201527f4552433732313a207472616e7366657220746f20746865207a65726f206164646044820152637265737360e01b60648201526084016108a3565b61142183838361175f565b61142c600082611250565b6001600160a01b0383166000908152600360205260408120805460019290611455908490612211565b90915550506001600160a01b03821660009081526003602052604081208054600192906114839084906120e5565b909155505060008181526002602052604080822080546001600160a01b0319166001600160a01b0386811691821790925591518493918716917fddf252ad1be2c89b69c2b068fc378daa952ba7f163c4a11628f55a4df523b3ef91a4505050565b610d67828260405180602001604052806000815250611817565b600a80546001600160a01b038381166001600160a01b0319831681179093556040519116919082907f8be0079c531659141344cd1fd0a4f28419497f9722a3daafe3b4186f6b6457e090600090a35050565b816001600160a01b0316836001600160a01b031614156115b25760405162461bcd60e51b815260206004820152601960248201527f4552433732313a20617070726f766520746f2063616c6c65720000000000000060448201526064016108a3565b6001600160a01b03838116600081815260056020908152604080832094871680845294825291829020805460ff191686151590811790915591519182527f17307eab39ab6107e8899845ad3d59bd9653f200f220920489ca2b5937696c31910160405180910390a3505050565b61162a84848461133d565b6116368484848461184a565b610bbd5760405162461bcd60e51b81526004016108a390612228565b6060600c805461078490612046565b6060816116855750506040805180820190915260018152600360fc1b602082015290565b8160005b81156116af57806116998161211c565b91506116a89050600a83612290565b9150611689565b60008167ffffffffffffffff8111156116ca576116ca611e98565b6040519080825280601f01601f1916602001820160405280156116f4576020820181803683370190505b5090505b841561133557611709600183612211565b9150611716600a866122a4565b6117219060306120e5565b60f81b81838151811061173657611736612137565b60200101906001600160f81b031916908160001a905350611758600a86612290565b94506116f8565b6001600160a01b0383166117ba576117b581600880546000838152600960205260408120829055600182018355919091527ff3f7a9fe364faab93b216da50a3214154f22a0a2b415b23a84c8169e8b636ee30155565b6117dd565b816001600160a01b0316836001600160a01b0316146117dd576117dd838261195e565b6001600160a01b0382166117f457610956816119fb565b826001600160a01b0316826001600160a01b031614610956576109568282611aaa565b6118218383611aee565b61182e600084848461184a565b6109565760405162461bcd60e51b81526004016108a390612228565b60006001600160a01b0384163b1561195357836001600160a01b031663150b7a02611873611241565b8786866040518563ffffffff1660e01b815260040161189594939291906122b8565b602060405180830381600087803b1580156118af57600080fd5b505af19250505080156118df575060408051601f3d908101601f191682019092526118dc918101906122f5565b60015b611939573d80801561190d576040519150601f19603f3d011682016040523d82523d6000602084013e611912565b606091505b5080516119315760405162461bcd60e51b81526004016108a390612228565b805181602001fd5b6001600160e01b031916630a85bd0160e11b149050611335565b506001949350505050565b6000600161196b84610e59565b6119759190612211565b6000838152600760205260409020549091508082146119c8576001600160a01b03841660009081526006602090815260408083208584528252808320548484528184208190558352600790915290208190555b5060009182526007602090815260408084208490556001600160a01b039094168352600681528383209183525290812055565b600854600090611a0d90600190612211565b60008381526009602052604081205460088054939450909284908110611a3557611a35612137565b906000526020600020015490508060088381548110611a5657611a56612137565b6000918252602080832090910192909255828152600990915260408082208490558582528120556008805480611a8e57611a8e612312565b6001900381819060005260206000200160009055905550505050565b6000611ab583610e59565b6001600160a01b039093166000908152600660209081526040808320868452825280832085905593825260079052919091209190915550565b6001600160a01b038216611b445760405162461bcd60e51b815260206004820181905260248201527f4552433732313a206d696e7420746f20746865207a65726f206164647265737360448201526064016108a3565b6000818152600260205260409020546001600160a01b031615611ba95760405162461bcd60e51b815260206004820152601c60248201527f4552433732313a20746f6b656e20616c7265616479206d696e7465640000000060448201526064016108a3565b611bb56000838361175f565b6001600160a01b0382166000908152600360205260408120805460019290611bde9084906120e5565b909155505060008181526002602052604080822080546001600160a01b0319166001600160a01b03861690811790915590518392907fddf252ad1be2c89b69c2b068fc378daa952ba7f163c4a11628f55a4df523b3ef908290a45050565b828054611c4890612046565b90600052602060002090601f016020900481019282611c6a5760008555611cb0565b82601f10611c8357805160ff1916838001178555611cb0565b82800160010185558215611cb0579182015b82811115611cb0578251825591602001919060010190611c95565b50611cbc929150611cc0565b5090565b5b80821115611cbc5760008155600101611cc1565b6001600160e01b031981168114610acb57600080fd5b600060208284031215611cfd57600080fd5b813561103e81611cd5565b80358015158114611d1857600080fd5b919050565b600060208284031215611d2f57600080fd5b61103e82611d08565b60005b83811015611d53578181015183820152602001611d3b565b83811115610bbd5750506000910152565b60008151808452611d7c816020860160208601611d38565b601f01601f19169290920160200192915050565b60208152600061103e6020830184611d64565b600060208284031215611db557600080fd5b5035919050565b80356001600160a01b0381168114611d1857600080fd5b60008060408385031215611de657600080fd5b611def83611dbc565b946020939093013593505050565b600080600060608486031215611e1257600080fd5b611e1b84611dbc565b9250611e2960208501611dbc565b9150604084013590509250925092565b600060208284031215611e4b57600080fd5b61103e82611dbc565b6020808252825182820181905260009190848201906040850190845b81811015611e8c57835183529284019291840191600101611e70565b50909695505050505050565b634e487b7160e01b600052604160045260246000fd5b600067ffffffffffffffff80841115611ec957611ec9611e98565b604051601f8501601f19908116603f01168101908282118183101715611ef157611ef1611e98565b81604052809350858152868686011115611f0a57600080fd5b858560208301376000602087830101525050509392505050565b600060208284031215611f3657600080fd5b813567ffffffffffffffff811115611f4d57600080fd5b8201601f81018413611f5e57600080fd5b61133584823560208401611eae565b60008060408385031215611f8057600080fd5b611f8983611dbc565b9150611f9760208401611d08565b90509250929050565b60008060008060808587031215611fb657600080fd5b611fbf85611dbc565b9350611fcd60208601611dbc565b925060408501359150606085013567ffffffffffffffff811115611ff057600080fd5b8501601f8101871361200157600080fd5b61201087823560208401611eae565b91505092959194509250565b6000806040838503121561202f57600080fd5b61203883611dbc565b9150611f9760208401611dbc565b600181811c9082168061205a57607f821691505b6020821081141561207b57634e487b7160e01b600052602260045260246000fd5b50919050565b6020808252602e908201527f4552433732313a2063616c6c6572206973206e6f7420746f6b656e206f776e6560408201526d1c881b9bdc88185c1c1c9bdd995960921b606082015260800190565b634e487b7160e01b600052601160045260246000fd5b600082198211156120f8576120f86120cf565b500190565b6000816000190483118215151615612117576121176120cf565b500290565b6000600019821415612130576121306120cf565b5060010190565b634e487b7160e01b600052603260045260246000fd5b6000845160206121608285838a01611d38565b8551918401916121738184848a01611d38565b8554920191600090600181811c908083168061219057607f831692505b8583108114156121ae57634e487b7160e01b85526022600452602485fd5b8080156121c257600181146121d357612200565b60ff19851688528388019550612200565b60008b81526020902060005b858110156121f85781548a8201529084019088016121df565b505083880195505b50939b9a5050505050505050505050565b600082821015612223576122236120cf565b500390565b60208082526032908201527f4552433732313a207472616e7366657220746f206e6f6e20455243373231526560408201527131b2b4bb32b91034b6b83632b6b2b73a32b960711b606082015260800190565b634e487b7160e01b600052601260045260246000fd5b60008261229f5761229f61227a565b500490565b6000826122b3576122b361227a565b500690565b6001600160a01b03858116825284166020820152604081018390526080606082018190526000906122eb90830184611d64565b9695505050505050565b60006020828403121561230757600080fd5b815161103e81611cd5565b634e487b7160e01b600052603160045260246000fdfea2646970667358221220ea05788aaac0ed9bd6f1ab5219047e26b47e93f573142140f4531e02795e2a9f64736f6c634300080900334552433732313a207472616e7366657220746f206e6f6e204552433732315265",
  "immutableReferences": {},
  "source": "// SPDX-License-Identifier: GPL-3.0\n\n// Amended by HashLips\n/**\n    !Disclaimer!\n    These contracts have been used to create tutorials,\n    and was created for the purpose to teach people\n    how to create smart contracts on the blockchain.\n    please review this code on your own before using any of\n    the following code for production.\n    HashLips will not be liable in any way if for the use \n    of the code. That being said, the code has been tested \n    to the best of the developers' knowledge to work as intended.\n*/\n\npragma solidity >=0.7.0 <0.9.0;\n\nimport \"@openzeppelin/contracts/token/ERC721/extensions/ERC721Enumerable.sol\";\nimport \"@openzeppelin/contracts/access/Ownable.sol\";\nimport \"@opengsn/contracts/src/BaseRelayRecipient.sol\";\n\ncontract DiANFT is ERC721Enumerable, Ownable, BaseRelayRecipient {\n  using Strings for uint256;\n\n  string public baseURI;\n  string public baseExtension = \".json\";\n  uint256 public cost = 0.0001 ether;\n  uint256 public maxSupply = 1000;\n  uint256 public maxMintAmount = 1;\n  bool public paused = false;\n  mapping(address => bool) public whitelisted;\n  //address public owner;\n  string data;\n//   modifier onlyOwner() {\n//     require(owner == _msgSender(), \"\");\n//     _;\n//     }\n\n  constructor(\n    string memory _name,\n    string memory _symbol,\n    string memory _initBaseURI,\n    address _trustedForwarder\n  ) ERC721(_name, _symbol) {\n    setBaseURI(_initBaseURI);\n    _setTrustedForwarder(_trustedForwarder);\n    mint(_msgSender(), 1);\n    data = \"Hello Metatransaction\";\n  }\n\n  function _msgSender() internal view override(Context, BaseRelayRecipient)\n      returns (address sender) {\n      sender = BaseRelayRecipient._msgSender();\n  }\n\n  function _msgData() internal view override(Context, BaseRelayRecipient)\n      returns (bytes calldata) {\n      return BaseRelayRecipient._msgData();\n  }\n\n  // internal\n  function _baseURI() internal view virtual override returns (string memory) {\n    return baseURI;\n  }\n\nfunction versionRecipient() external pure override returns (string memory) {\n        return \"1\";\n    }\n\n//    function setTrustForwarder(address _trustedForwarder) public onlyOwner {\n//         _setTrustedForwarder(_trustedForwarder);\n//     }\n\n  // public\n  function mint(address _to, uint256 _mintAmount) public payable {\n    uint256 supply = totalSupply();\n    require(!paused);\n    require(_mintAmount > 0);\n    require(_mintAmount <= maxMintAmount);\n    require(supply + _mintAmount <= maxSupply);\n\n    if (_msgSender() != owner()) {\n        if(whitelisted[_msgSender()] != true) {\n          require(msg.value >= cost * _mintAmount);\n        }\n    }\n\n    for (uint256 i = 1; i <= _mintAmount; i++) {\n      _safeMint(_to, supply + i);\n    }\n  }\n\n  function walletOfOwner(address _owner)\n    public\n    view\n    returns (uint256[] memory)\n  {\n    uint256 ownerTokenCount = balanceOf(_owner);\n    uint256[] memory tokenIds = new uint256[](ownerTokenCount);\n    for (uint256 i; i < ownerTokenCount; i++) {\n      tokenIds[i] = tokenOfOwnerByIndex(_owner, i);\n    }\n    return tokenIds;\n  }\n\n  function tokenURI(uint256 tokenId)\n    public\n    view\n    virtual\n    override\n    returns (string memory)\n  {\n    require(\n      _exists(tokenId),\n      \"ERC721Metadata: URI query for nonexistent token\"\n    );\n\n    string memory currentBaseURI = _baseURI();\n    return bytes(currentBaseURI).length > 0\n        ? string(abi.encodePacked(currentBaseURI, tokenId.toString(), baseExtension))\n        : \"\";\n  }\n\n  //only owner\n  function setCost(uint256 _newCost) public onlyOwner {\n    cost = _newCost;\n  }\n\n  function setmaxMintAmount(uint256 _newmaxMintAmount) public onlyOwner {\n    maxMintAmount = _newmaxMintAmount;\n  }\n\n  function setBaseURI(string memory _newBaseURI) public onlyOwner {\n    baseURI = _newBaseURI;\n  }\n\n  function setBaseExtension(string memory _newBaseExtension) public onlyOwner {\n    baseExtension = _newBaseExtension;\n  }\n\n  function pause(bool _state) public onlyOwner {\n    paused = _state;\n  }\n \n function whitelistUser(address _user) public onlyOwner {\n    whitelisted[_user] = true;\n  }\n \n  function removeWhitelistUser(address _user) public onlyOwner {\n    whitelisted[_user] = false;\n  }\n\n  function withdraw() public payable onlyOwner {    \n    // This will payout the owner 95% of the contract balance.\n    // Do not remove this otherwise you will not be able to withdraw the funds.\n    // =============================================================================\n    (bool os, ) = payable(owner()).call{value: address(this).balance}(\"\");\n    require(os);\n    // =============================================================================\n  }\n}",
  "sourcePath": "/Users/PRATIKS1/Desktop/MySpace/meta/moralis-biconomy-metatransactions/Truffle/contracts/DiANFT.sol",
  "compiler": {
    "name": "solc",
    "version": "0.8.9+commit.e5eed63a.Emscripten.clang"
  },
  "schemaVersion": "3.4.7",
  "updatedAt": "2022-07-04T04:05:07.822Z",
  "networkType": "ethereum",
  "devdoc": {
    "kind": "dev",
    "methods": {
      "approve(address,uint256)": {
        "details": "See {IERC721-approve}."
      },
      "balanceOf(address)": {
        "details": "See {IERC721-balanceOf}."
      },
      "getApproved(uint256)": {
        "details": "See {IERC721-getApproved}."
      },
      "isApprovedForAll(address,address)": {
        "details": "See {IERC721-isApprovedForAll}."
      },
      "name()": {
        "details": "See {IERC721Metadata-name}."
      },
      "owner()": {
        "details": "Returns the address of the current owner."
      },
      "ownerOf(uint256)": {
        "details": "See {IERC721-ownerOf}."
      },
      "renounceOwnership()": {
        "details": "Leaves the contract without owner. It will not be possible to call `onlyOwner` functions anymore. Can only be called by the current owner. NOTE: Renouncing ownership will leave the contract without an owner, thereby removing any functionality that is only available to the owner."
      },
      "safeTransferFrom(address,address,uint256)": {
        "details": "See {IERC721-safeTransferFrom}."
      },
      "safeTransferFrom(address,address,uint256,bytes)": {
        "details": "See {IERC721-safeTransferFrom}."
      },
      "setApprovalForAll(address,bool)": {
        "details": "See {IERC721-setApprovalForAll}."
      },
      "supportsInterface(bytes4)": {
        "details": "See {IERC165-supportsInterface}."
      },
      "symbol()": {
        "details": "See {IERC721Metadata-symbol}."
      },
      "tokenByIndex(uint256)": {
        "details": "See {IERC721Enumerable-tokenByIndex}."
      },
      "tokenOfOwnerByIndex(address,uint256)": {
        "details": "See {IERC721Enumerable-tokenOfOwnerByIndex}."
      },
      "tokenURI(uint256)": {
        "details": "See {IERC721Metadata-tokenURI}."
      },
      "totalSupply()": {
        "details": "See {IERC721Enumerable-totalSupply}."
      },
      "transferFrom(address,address,uint256)": {
        "details": "See {IERC721-transferFrom}."
      },
      "transferOwnership(address)": {
        "details": "Transfers ownership of the contract to a new account (`newOwner`). Can only be called by the current owner."
      }
    },
    "version": 1
  },
  "userdoc": {
    "kind": "user",
    "methods": {
      "isTrustedForwarder(address)": {
        "notice": "return if the forwarder is trusted to forward relayed transactions to us. the forwarder is required to verify the sender's signature, and verify the call is not a replay."
      }
    },
    "version": 1
  }
}